{
  "_format": "hh-sol-artifact-1",
  "contractName": "OracleContract",
  "sourceName": "contracts/Oracle.sol",
  "abi": [
    {
      "inputs": [],
      "stateMutability": "nonpayable",
      "type": "constructor"
    },
    {
      "anonymous": false,
      "inputs": [
        {
          "indexed": true,
          "internalType": "bytes32",
          "name": "requestId",
          "type": "bytes32"
        },
        {
          "indexed": false,
          "internalType": "uint256",
          "name": "result",
          "type": "uint256"
        }
      ],
      "name": "ComputationCompleted",
      "type": "event"
    },
    {
      "anonymous": false,
      "inputs": [
        {
          "indexed": true,
          "internalType": "bytes32",
          "name": "requestId",
          "type": "bytes32"
        },
        {
          "indexed": false,
          "internalType": "bytes",
          "name": "ast",
          "type": "bytes"
        },
        {
          "indexed": false,
          "internalType": "uint256[]",
          "name": "numbers",
          "type": "uint256[]"
        }
      ],
      "name": "ComputationRequested",
      "type": "event"
    },
    {
      "anonymous": false,
      "inputs": [
        {
          "indexed": true,
          "internalType": "address",
          "name": "user",
          "type": "address"
        },
        {
          "indexed": false,
          "internalType": "uint256",
          "name": "amount",
          "type": "uint256"
        }
      ],
      "name": "Deposited",
      "type": "event"
    },
    {
      "anonymous": false,
      "inputs": [
        {
          "indexed": true,
          "internalType": "uint256",
          "name": "logicId",
          "type": "uint256"
        },
        {
          "indexed": true,
          "internalType": "address",
          "name": "owner",
          "type": "address"
        },
        {
          "indexed": false,
          "internalType": "bytes",
          "name": "ast",
          "type": "bytes"
        }
      ],
      "name": "LogicRegistered",
      "type": "event"
    },
    {
      "anonymous": false,
      "inputs": [
        {
          "indexed": true,
          "internalType": "address",
          "name": "previousOwner",
          "type": "address"
        },
        {
          "indexed": true,
          "internalType": "address",
          "name": "newOwner",
          "type": "address"
        }
      ],
      "name": "OwnershipTransferred",
      "type": "event"
    },
    {
      "anonymous": false,
      "inputs": [
        {
          "indexed": true,
          "internalType": "address",
          "name": "user",
          "type": "address"
        },
        {
          "indexed": false,
          "internalType": "uint256",
          "name": "amount",
          "type": "uint256"
        }
      ],
      "name": "Withdrawn",
      "type": "event"
    },
    {
      "inputs": [
        {
          "internalType": "address",
          "name": "",
          "type": "address"
        }
      ],
      "name": "balances",
      "outputs": [
        {
          "internalType": "uint256",
          "name": "",
          "type": "uint256"
        }
      ],
      "stateMutability": "view",
      "type": "function"
    },
    {
      "inputs": [
        {
          "internalType": "bytes32",
          "name": "requestId",
          "type": "bytes32"
        },
        {
          "internalType": "uint256",
          "name": "result",
          "type": "uint256"
        }
      ],
      "name": "callback",
      "outputs": [],
      "stateMutability": "nonpayable",
      "type": "function"
    },
    {
      "inputs": [
        {
          "internalType": "bytes32",
          "name": "requestId",
          "type": "bytes32"
        },
        {
          "internalType": "uint256",
          "name": "result",
          "type": "uint256"
        },
        {
          "internalType": "bytes",
          "name": "signature",
          "type": "bytes"
        }
      ],
      "name": "callbackBySigner",
      "outputs": [],
      "stateMutability": "nonpayable",
      "type": "function"
    },
    {
      "inputs": [
        {
          "internalType": "uint256",
          "name": "logicId",
          "type": "uint256"
        },
        {
          "internalType": "uint256[]",
          "name": "numbers",
          "type": "uint256[]"
        }
      ],
      "name": "compute",
      "outputs": [],
      "stateMutability": "payable",
      "type": "function"
    },
    {
      "inputs": [
        {
          "internalType": "bytes32",
          "name": "",
          "type": "bytes32"
        }
      ],
      "name": "computeResults",
      "outputs": [
        {
          "internalType": "uint256",
          "name": "",
          "type": "uint256"
        }
      ],
      "stateMutability": "view",
      "type": "function"
    },
    {
      "inputs": [],
      "name": "deposit",
      "outputs": [],
      "stateMutability": "payable",
      "type": "function"
    },
    {
      "inputs": [
        {
          "internalType": "uint256",
          "name": "logicId",
          "type": "uint256"
        },
        {
          "internalType": "uint256[]",
          "name": "numbers",
          "type": "uint256[]"
        }
      ],
      "name": "getRequestId",
      "outputs": [
        {
          "internalType": "bytes32",
          "name": "",
          "type": "bytes32"
        }
      ],
      "stateMutability": "pure",
      "type": "function"
    },
    {
      "inputs": [
        {
          "internalType": "bytes32",
          "name": "requestId",
          "type": "bytes32"
        }
      ],
      "name": "getResult",
      "outputs": [
        {
          "internalType": "uint256",
          "name": "",
          "type": "uint256"
        }
      ],
      "stateMutability": "view",
      "type": "function"
    },
    {
      "inputs": [],
      "name": "logicCounter",
      "outputs": [
        {
          "internalType": "uint256",
          "name": "",
          "type": "uint256"
        }
      ],
      "stateMutability": "view",
      "type": "function"
    },
    {
      "inputs": [
        {
          "internalType": "uint256",
          "name": "",
          "type": "uint256"
        }
      ],
      "name": "logicRegistry",
      "outputs": [
        {
          "internalType": "bytes",
          "name": "ast",
          "type": "bytes"
        },
        {
          "internalType": "address",
          "name": "owner",
          "type": "address"
        }
      ],
      "stateMutability": "view",
      "type": "function"
    },
    {
      "inputs": [],
      "name": "oracleBalance",
      "outputs": [
        {
          "internalType": "uint256",
          "name": "",
          "type": "uint256"
        }
      ],
      "stateMutability": "view",
      "type": "function"
    },
    {
      "inputs": [],
      "name": "owner",
      "outputs": [
        {
          "internalType": "address",
          "name": "",
          "type": "address"
        }
      ],
      "stateMutability": "view",
      "type": "function"
    },
    {
      "inputs": [
        {
          "internalType": "bytes",
          "name": "ast",
          "type": "bytes"
        }
      ],
      "name": "registerLogic",
      "outputs": [
        {
          "internalType": "uint256",
          "name": "",
          "type": "uint256"
        }
      ],
      "stateMutability": "nonpayable",
      "type": "function"
    },
    {
      "inputs": [],
      "name": "renounceOwnership",
      "outputs": [],
      "stateMutability": "nonpayable",
      "type": "function"
    },
    {
      "inputs": [
        {
          "internalType": "bytes32",
          "name": "hash",
          "type": "bytes32"
        }
      ],
      "name": "toEthSignedMessageHash",
      "outputs": [
        {
          "internalType": "bytes32",
          "name": "",
          "type": "bytes32"
        }
      ],
      "stateMutability": "pure",
      "type": "function"
    },
    {
      "inputs": [
        {
          "internalType": "address",
          "name": "newOwner",
          "type": "address"
        }
      ],
      "name": "transferOwnership",
      "outputs": [],
      "stateMutability": "nonpayable",
      "type": "function"
    },
    {
      "inputs": [
        {
          "internalType": "uint256",
          "name": "amount",
          "type": "uint256"
        }
      ],
      "name": "withdraw",
      "outputs": [],
      "stateMutability": "nonpayable",
      "type": "function"
    },
    {
      "inputs": [],
      "name": "withdrawOracleBalance",
      "outputs": [],
      "stateMutability": "nonpayable",
      "type": "function"
    }
  ],
  "bytecode": "0x608060405234801561001057600080fd5b506000339050806000806101000a81548173ffffffffffffffffffffffffffffffffffffffff021916908373ffffffffffffffffffffffffffffffffffffffff1602179055508073ffffffffffffffffffffffffffffffffffffffff16600073ffffffffffffffffffffffffffffffffffffffff167f8be0079c531659141344cd1fd0a4f28419497f9722a3daafe3b4186f6b6457e060405160405180910390a350326000806101000a81548173ffffffffffffffffffffffffffffffffffffffff021916908373ffffffffffffffffffffffffffffffffffffffff160217905550612599806101016000396000f3fe6080604052600436106101095760003560e01c806382fd153911610095578063add4c78411610064578063add4c7841461035b578063d0e30db014610398578063df0f8870146103a2578063e4ea36cc146103cd578063f2fde38b1461040a57610109565b806382fd15391461028d5780638da5cb5b146102ca578063918a15cf146102f5578063a3db0dc41461033257610109565b8063444282de116100dc578063444282de146101a75780634e5b2840146101d057806360e7ada9146101fb578063715018a61461023957806380d5a9341461025057610109565b80630abedf571461010e57806327e235e31461012a5780632e1a7d4d146101675780633f4c580014610190575b600080fd5b610128600480360381019061012391906114ff565b610433565b005b34801561013657600080fd5b50610151600480360381019061014c91906115b9565b610658565b60405161015e91906115f5565b60405180910390f35b34801561017357600080fd5b5061018e60048036038101906101899190611610565b610670565b005b34801561019c57600080fd5b506101a56107e0565b005b3480156101b357600080fd5b506101ce60048036038101906101c99190611673565b6108e7565b005b3480156101dc57600080fd5b506101e56109c9565b6040516101f291906115f5565b60405180910390f35b34801561020757600080fd5b50610222600480360381019061021d9190611610565b6109cf565b604051610230929190611741565b60405180910390f35b34801561024557600080fd5b5061024e610a9b565b005b34801561025c57600080fd5b50610277600480360381019061027291906114ff565b610be7565b6040516102849190611780565b60405180910390f35b34801561029957600080fd5b506102b460048036038101906102af919061179b565b610c1a565b6040516102c191906115f5565b60405180910390f35b3480156102d657600080fd5b506102df610c32565b6040516102ec91906117c8565b60405180910390f35b34801561030157600080fd5b5061031c6004803603810190610317919061179b565b610c5b565b6040516103299190611780565b60405180910390f35b34801561033e57600080fd5b5061035960048036038101906103549190611898565b610c8b565b005b34801561036757600080fd5b50610382600480360381019061037d919061179b565b610ebf565b60405161038f91906115f5565b60405180910390f35b6103a0610ee1565b005b3480156103ae57600080fd5b506103b7610fca565b6040516103c491906115f5565b60405180910390f35b3480156103d957600080fd5b506103f460048036038101906103ef9190611907565b610fd0565b60405161040191906115f5565b60405180910390f35b34801561041657600080fd5b50610431600480360381019061042c91906115b9565b6110e5565b005b600073ffffffffffffffffffffffffffffffffffffffff166002600084815260200190815260200160002060010160009054906101000a900473ffffffffffffffffffffffffffffffffffffffff1673ffffffffffffffffffffffffffffffffffffffff16036104d8576040517f08c379a00000000000000000000000000000000000000000000000000000000081526004016104cf906119ad565b60405180910390fd5b662386f26fc100003414610521576040517f08c379a000000000000000000000000000000000000000000000000000000000815260040161051890611a19565b60405180910390fd5b60008060009054906101000a900473ffffffffffffffffffffffffffffffffffffffff1673ffffffffffffffffffffffffffffffffffffffff16662386f26fc1000060405161056f90611a6a565b60006040518083038185875af1925050503d80600081146105ac576040519150601f19603f3d011682016040523d82523d6000602084013e6105b1565b606091505b50509050806105f5576040517f08c379a00000000000000000000000000000000000000000000000000000000081526004016105ec90611acb565b60405180910390fd5b60006106018484610be7565b9050807f5584e31523e17f6b62d971da9b84f8d86583af17d1a2516192c7321d56de811c600260008781526020019081526020016000206000018560405161064a929190611ca2565b60405180910390a250505050565b60046020528060005260406000206000915090505481565b80600460003373ffffffffffffffffffffffffffffffffffffffff1673ffffffffffffffffffffffffffffffffffffffff1681526020019081526020016000205410156106f2576040517f08c379a00000000000000000000000000000000000000000000000000000000081526004016106e990611d25565b60405180910390fd5b80600460003373ffffffffffffffffffffffffffffffffffffffff1673ffffffffffffffffffffffffffffffffffffffff16815260200190815260200160002060008282546107419190611d74565b925050819055503373ffffffffffffffffffffffffffffffffffffffff166108fc829081150290604051600060405180830381858888f1935050505015801561078e573d6000803e3d6000fd5b503373ffffffffffffffffffffffffffffffffffffffff167f7084f5476618d8e60b11ef0d7d3f06914655adb8793e28ff7f018d4c76d505d5826040516107d591906115f5565b60405180910390a250565b3373ffffffffffffffffffffffffffffffffffffffff1660008054906101000a900473ffffffffffffffffffffffffffffffffffffffff1673ffffffffffffffffffffffffffffffffffffffff161461086e576040517f08c379a000000000000000000000000000000000000000000000000000000000815260040161086590611df4565b60405180910390fd5b60006005549050600060058190555060008054906101000a900473ffffffffffffffffffffffffffffffffffffffff1673ffffffffffffffffffffffffffffffffffffffff166108fc829081150290604051600060405180830381858888f193505050501580156108e3573d6000803e3d6000fd5b5050565b3373ffffffffffffffffffffffffffffffffffffffff1660008054906101000a900473ffffffffffffffffffffffffffffffffffffffff1673ffffffffffffffffffffffffffffffffffffffff1614610975576040517f08c379a000000000000000000000000000000000000000000000000000000000815260040161096c90611df4565b60405180910390fd5b806001600084815260200190815260200160002081905550817f3cec490885a17f640297f51e2ea648a5d42de66d7ee66a4c92cd5a298478b01b826040516109bd91906115f5565b60405180910390a25050565b60055481565b60026020528060005260406000206000915090508060000180546109f290611b1a565b80601f0160208091040260200160405190810160405280929190818152602001828054610a1e90611b1a565b8015610a6b5780601f10610a4057610100808354040283529160200191610a6b565b820191906000526020600020905b815481529060010190602001808311610a4e57829003601f168201915b5050505050908060010160009054906101000a900473ffffffffffffffffffffffffffffffffffffffff16905082565b3373ffffffffffffffffffffffffffffffffffffffff1660008054906101000a900473ffffffffffffffffffffffffffffffffffffffff1673ffffffffffffffffffffffffffffffffffffffff1614610b29576040517f08c379a0000000000000000000000000000000000000000000000000000000008152600401610b2090611df4565b60405180910390fd5b600073ffffffffffffffffffffffffffffffffffffffff1660008054906101000a900473ffffffffffffffffffffffffffffffffffffffff1673ffffffffffffffffffffffffffffffffffffffff167f8be0079c531659141344cd1fd0a4f28419497f9722a3daafe3b4186f6b6457e060405160405180910390a360008060006101000a81548173ffffffffffffffffffffffffffffffffffffffff021916908373ffffffffffffffffffffffffffffffffffffffff160217905550565b60008282604051602001610bfc929190611ec5565b60405160208183030381529060405280519060200120905092915050565b60016020528060005260406000206000915090505481565b60008060009054906101000a900473ffffffffffffffffffffffffffffffffffffffff16905090565b600081604051602001610c6e9190611f65565b604051602081830303815290604052805190602001209050919050565b3373ffffffffffffffffffffffffffffffffffffffff1660008054906101000a900473ffffffffffffffffffffffffffffffffffffffff1673ffffffffffffffffffffffffffffffffffffffff1614610d19576040517f08c379a0000000000000000000000000000000000000000000000000000000008152600401610d1090611df4565b60405180910390fd5b81600160008581526020019081526020016000208190555060008330604051602001610d46929190611fd3565b6040516020818303038152906040528051906020012090506000610d6982610c5b565b90506000610d77828561129f565b9050662386f26fc10000600460008373ffffffffffffffffffffffffffffffffffffffff1673ffffffffffffffffffffffffffffffffffffffff168152602001908152602001600020541015610e02576040517f08c379a0000000000000000000000000000000000000000000000000000000008152600401610df990612071565b60405180910390fd5b662386f26fc10000600460008373ffffffffffffffffffffffffffffffffffffffff1673ffffffffffffffffffffffffffffffffffffffff1681526020019081526020016000206000828254610e589190611d74565b92505081905550662386f26fc1000060056000828254610e789190612091565b92505081905550857f3cec490885a17f640297f51e2ea648a5d42de66d7ee66a4c92cd5a298478b01b86604051610eaf91906115f5565b60405180910390a2505050505050565b6000806001600084815260200190815260200160002054905080915050919050565b60003411610f24576040517f08c379a0000000000000000000000000000000000000000000000000000000008152600401610f1b90612137565b60405180910390fd5b34600460003373ffffffffffffffffffffffffffffffffffffffff1673ffffffffffffffffffffffffffffffffffffffff1681526020019081526020016000206000828254610f739190612091565b925050819055503373ffffffffffffffffffffffffffffffffffffffff167f2da466a7b24304f47e87fa2e1e5a81b9831ce54fec19055ce277ca2f39ba42c434604051610fc091906115f5565b60405180910390a2565b60035481565b600060036000815480929190610fe590612157565b919050555060405180604001604052808381526020013373ffffffffffffffffffffffffffffffffffffffff16815250600260006003548152602001908152602001600020600082015181600001908161103f9190612336565b5060208201518160010160006101000a81548173ffffffffffffffffffffffffffffffffffffffff021916908373ffffffffffffffffffffffffffffffffffffffff1602179055509050503373ffffffffffffffffffffffffffffffffffffffff166003547f05c07ca43b32b22d3caa4d42a15b225ef80b006adc4d0a8c140a3beeefeb94a4846040516110d39190612408565b60405180910390a36003549050919050565b3373ffffffffffffffffffffffffffffffffffffffff1660008054906101000a900473ffffffffffffffffffffffffffffffffffffffff1673ffffffffffffffffffffffffffffffffffffffff1614611173576040517f08c379a000000000000000000000000000000000000000000000000000000000815260040161116a90611df4565b60405180910390fd5b600073ffffffffffffffffffffffffffffffffffffffff168173ffffffffffffffffffffffffffffffffffffffff16036111e2576040517f08c379a00000000000000000000000000000000000000000000000000000000081526004016111d990612476565b60405180910390fd5b8073ffffffffffffffffffffffffffffffffffffffff1660008054906101000a900473ffffffffffffffffffffffffffffffffffffffff1673ffffffffffffffffffffffffffffffffffffffff167f8be0079c531659141344cd1fd0a4f28419497f9722a3daafe3b4186f6b6457e060405160405180910390a3806000806101000a81548173ffffffffffffffffffffffffffffffffffffffff021916908373ffffffffffffffffffffffffffffffffffffffff16021790555050565b600060418251146112e5576040517f08c379a00000000000000000000000000000000000000000000000000000000081526004016112dc906124e2565b60405180910390fd5b60008060006020850151925060408501519150606085015160001a905060018682858560405160008152602001604052604051611325949392919061251e565b6020604051602081039080840390855afa158015611347573d6000803e3d6000fd5b50505060206040510351935050505092915050565b6000604051905090565b600080fd5b600080fd5b6000819050919050565b61138381611370565b811461138e57600080fd5b50565b6000813590506113a08161137a565b92915050565b600080fd5b6000601f19601f8301169050919050565b7f4e487b7100000000000000000000000000000000000000000000000000000000600052604160045260246000fd5b6113f4826113ab565b810181811067ffffffffffffffff82111715611413576114126113bc565b5b80604052505050565b600061142661135c565b905061143282826113eb565b919050565b600067ffffffffffffffff821115611452576114516113bc565b5b602082029050602081019050919050565b600080fd5b600061147b61147684611437565b61141c565b9050808382526020820190506020840283018581111561149e5761149d611463565b5b835b818110156114c757806114b38882611391565b8452602084019350506020810190506114a0565b5050509392505050565b600082601f8301126114e6576114e56113a6565b5b81356114f6848260208601611468565b91505092915050565b6000806040838503121561151657611515611366565b5b600061152485828601611391565b925050602083013567ffffffffffffffff8111156115455761154461136b565b5b611551858286016114d1565b9150509250929050565b600073ffffffffffffffffffffffffffffffffffffffff82169050919050565b60006115868261155b565b9050919050565b6115968161157b565b81146115a157600080fd5b50565b6000813590506115b38161158d565b92915050565b6000602082840312156115cf576115ce611366565b5b60006115dd848285016115a4565b91505092915050565b6115ef81611370565b82525050565b600060208201905061160a60008301846115e6565b92915050565b60006020828403121561162657611625611366565b5b600061163484828501611391565b91505092915050565b6000819050919050565b6116508161163d565b811461165b57600080fd5b50565b60008135905061166d81611647565b92915050565b6000806040838503121561168a57611689611366565b5b60006116988582860161165e565b92505060206116a985828601611391565b9150509250929050565b600081519050919050565b600082825260208201905092915050565b60005b838110156116ed5780820151818401526020810190506116d2565b60008484015250505050565b6000611704826116b3565b61170e81856116be565b935061171e8185602086016116cf565b611727816113ab565b840191505092915050565b61173b8161157b565b82525050565b6000604082019050818103600083015261175b81856116f9565b905061176a6020830184611732565b9392505050565b61177a8161163d565b82525050565b60006020820190506117956000830184611771565b92915050565b6000602082840312156117b1576117b0611366565b5b60006117bf8482850161165e565b91505092915050565b60006020820190506117dd6000830184611732565b92915050565b600080fd5b600067ffffffffffffffff821115611803576118026113bc565b5b61180c826113ab565b9050602081019050919050565b82818337600083830152505050565b600061183b611836846117e8565b61141c565b905082815260208101848484011115611857576118566117e3565b5b611862848285611819565b509392505050565b600082601f83011261187f5761187e6113a6565b5b813561188f848260208601611828565b91505092915050565b6000806000606084860312156118b1576118b0611366565b5b60006118bf8682870161165e565b93505060206118d086828701611391565b925050604084013567ffffffffffffffff8111156118f1576118f061136b565b5b6118fd8682870161186a565b9150509250925092565b60006020828403121561191d5761191c611366565b5b600082013567ffffffffffffffff81111561193b5761193a61136b565b5b6119478482850161186a565b91505092915050565b600082825260208201905092915050565b7f4c6f676963206e6f7420666f756e640000000000000000000000000000000000600082015250565b6000611997600f83611950565b91506119a282611961565b602082019050919050565b600060208201905081810360008301526119c68161198a565b9050919050565b7f496e73756666696369656e74204554482073656e740000000000000000000000600082015250565b6000611a03601583611950565b9150611a0e826119cd565b602082019050919050565b60006020820190508181036000830152611a32816119f6565b9050919050565b600081905092915050565b50565b6000611a54600083611a39565b9150611a5f82611a44565b600082019050919050565b6000611a7582611a47565b9150819050919050565b7f4661696c656420746f2073656e64204574686572000000000000000000000000600082015250565b6000611ab5601483611950565b9150611ac082611a7f565b602082019050919050565b60006020820190508181036000830152611ae481611aa8565b9050919050565b7f4e487b7100000000000000000000000000000000000000000000000000000000600052602260045260246000fd5b60006002820490506001821680611b3257607f821691505b602082108103611b4557611b44611aeb565b5b50919050565b60008190508160005260206000209050919050565b60008154611b6d81611b1a565b611b7781866116be565b94506001821660008114611b925760018114611ba857611bdb565b60ff198316865281151560200286019350611bdb565b611bb185611b4b565b60005b83811015611bd357815481890152600182019150602081019050611bb4565b808801955050505b50505092915050565b600081519050919050565b600082825260208201905092915050565b6000819050602082019050919050565b611c1981611370565b82525050565b6000611c2b8383611c10565b60208301905092915050565b6000602082019050919050565b6000611c4f82611be4565b611c598185611bef565b9350611c6483611c00565b8060005b83811015611c95578151611c7c8882611c1f565b9750611c8783611c37565b925050600181019050611c68565b5085935050505092915050565b60006040820190508181036000830152611cbc8185611b60565b90508181036020830152611cd08184611c44565b90509392505050565b7f496e73756666696369656e742062616c616e6365000000000000000000000000600082015250565b6000611d0f601483611950565b9150611d1a82611cd9565b602082019050919050565b60006020820190508181036000830152611d3e81611d02565b9050919050565b7f4e487b7100000000000000000000000000000000000000000000000000000000600052601160045260246000fd5b6000611d7f82611370565b9150611d8a83611370565b9250828203905081811115611da257611da1611d45565b5b92915050565b7f216f776e65720000000000000000000000000000000000000000000000000000600082015250565b6000611dde600683611950565b9150611de982611da8565b602082019050919050565b60006020820190508181036000830152611e0d81611dd1565b9050919050565b6000819050919050565b611e2f611e2a82611370565b611e14565b82525050565b600081905092915050565b611e4981611370565b82525050565b6000611e5b8383611e40565b60208301905092915050565b6000611e7282611be4565b611e7c8185611e35565b9350611e8783611c00565b8060005b83811015611eb8578151611e9f8882611e4f565b9750611eaa83611c37565b925050600181019050611e8b565b5085935050505092915050565b6000611ed18285611e1e565b602082019150611ee18284611e67565b91508190509392505050565b600081905092915050565b7f19457468657265756d205369676e6564204d6573736167653a0a333200000000600082015250565b6000611f2e601c83611eed565b9150611f3982611ef8565b601c82019050919050565b6000819050919050565b611f5f611f5a8261163d565b611f44565b82525050565b6000611f7082611f21565b9150611f7c8284611f4e565b60208201915081905092915050565b60008160601b9050919050565b6000611fa382611f8b565b9050919050565b6000611fb582611f98565b9050919050565b611fcd611fc88261157b565b611faa565b82525050565b6000611fdf8285611f4e565b602082019150611fef8284611fbc565b6014820191508190509392505050565b7f496e73756666696369656e742062616c616e636520666f7220636f6d7075746160008201527f74696f6e00000000000000000000000000000000000000000000000000000000602082015250565b600061205b602483611950565b915061206682611fff565b604082019050919050565b6000602082019050818103600083015261208a8161204e565b9050919050565b600061209c82611370565b91506120a783611370565b92508282019050808211156120bf576120be611d45565b5b92915050565b7f4465706f73697420616d6f756e74206d7573742062652067726561746572207460008201527f68616e2030000000000000000000000000000000000000000000000000000000602082015250565b6000612121602583611950565b915061212c826120c5565b604082019050919050565b6000602082019050818103600083015261215081612114565b9050919050565b600061216282611370565b91507fffffffffffffffffffffffffffffffffffffffffffffffffffffffffffffffff820361219457612193611d45565b5b600182019050919050565b60006020601f8301049050919050565b600082821b905092915050565b6000600883026121ec7fffffffffffffffffffffffffffffffffffffffffffffffffffffffffffffffff826121af565b6121f686836121af565b95508019841693508086168417925050509392505050565b6000819050919050565b600061223361222e61222984611370565b61220e565b611370565b9050919050565b6000819050919050565b61224d83612218565b6122616122598261223a565b8484546121bc565b825550505050565b600090565b612276612269565b612281818484612244565b505050565b5b818110156122a55761229a60008261226e565b600181019050612287565b5050565b601f8211156122ea576122bb81611b4b565b6122c48461219f565b810160208510156122d3578190505b6122e76122df8561219f565b830182612286565b50505b505050565b600082821c905092915050565b600061230d600019846008026122ef565b1980831691505092915050565b600061232683836122fc565b9150826002028217905092915050565b61233f826116b3565b67ffffffffffffffff811115612358576123576113bc565b5b6123628254611b1a565b61236d8282856122a9565b600060209050601f8311600181146123a0576000841561238e578287015190505b612398858261231a565b865550612400565b601f1984166123ae86611b4b565b60005b828110156123d6578489015182556001820191506020850194506020810190506123b1565b868310156123f357848901516123ef601f8916826122fc565b8355505b6001600288020188555050505b505050505050565b6000602082019050818103600083015261242281846116f9565b905092915050565b7f6e65772069732030000000000000000000000000000000000000000000000000600082015250565b6000612460600883611950565b915061246b8261242a565b602082019050919050565b6000602082019050818103600083015261248f81612453565b9050919050565b7f696e76616c6964207369676e6174757265206c656e6774680000000000000000600082015250565b60006124cc601883611950565b91506124d782612496565b602082019050919050565b600060208201905081810360008301526124fb816124bf565b9050919050565b600060ff82169050919050565b61251881612502565b82525050565b60006080820190506125336000830187611771565b612540602083018661250f565b61254d6040830185611771565b61255a6060830184611771565b9594505050505056fea2646970667358221220b311a95c44567bec363eadf03312d569d65f4d08d0c969764ddd62dce994918464736f6c63430008180033",
  "linkReferences": {},
  "deployedLinkReferences": {}
}